:020000040800F2
:1000000000500020F130010891310108D91A01088F
:10001000913101089131010891310108000000007F
:100020000000000000000000000000009131010805
:10003000913101080000000091310108AF0C010866
:100040009131010891310108913101089131010884
:1000500091310108913101087D8E00087B8E0008E6
:100060009131010891310108913101089131010864
:10007000913101089131010879F2000891310108AC
:100080007F8E0008913101089131010891310108FA
:10009000913101089131010891310108798E0008F0
:1000A0009131010845F000089131010855F0000830
:1000B00039F0000829F0000819F000088D560008F2
:1000C00091560008855600088956000891310108AC
:1000D000913101086DF2000861F2000855F2000844
:1000E000BD0C0108913101089131010800000000A8
:1000F0000000000000000000000000000000000000
:0C01000000000000000000005FF808F1A3
:100110002DE9F04F744B754CA3B02360002363604E
:100120000FF0A7FCA24618B90FF0C6FC0CF0A0FA1D
:100130000CF068FB6E4A6F4C13786F4D43F001036F
:10014000137000230A930B930C934FF4E0130D9359
:100150002368287B43F480332360A36943F01003B2
:10016000A361236803F400330B930A9B01330A93C2
:100170000B9B1BB90A9BB3F5A06FF2D123685D49B5
:1001800013F4003301D0022315E00A6842F00102A3
:100190000A600A93236803F002030B930A9B01335E
:1001A0000A930B9B1BB90A9BB3F5A06FF2D123688E
:1001B0009A0739D501230C93504B51491A6842F0E4
:1001C00010021A601A6822F003021A601A6842F0DC
:1001D00002021A606368636063686360636843F483
:1001E00080636360474B1A68043B22F070425A6098
:1001F000454A1160616821F47C116160596841F0E1
:1002000000415960D96821F40041D9609B681B0402
:1002100049BF3E4B4FF4E01313604FF480130D932E
:100220000C9B012B01D117E0FEE7022B18D168B11E
:100230000D9BB3F5801F02D14FF4A01305E00D9B79
:10024000B3F5E01F02D14FF400130D930D996368CD
:100250000B4343F4803302E0636843F4601363604C
:10026000236843F0807323602168224B8F01FBD504
:10027000596821F003015960596841F00201596041
:1002800063681C4903F00C03082BF9D14B68204824
:1002900003F00C03042B03D0082B03D0184B12E0FF
:1002A000136810E04B684E68C3F38343F60303F111
:1002B000020301D4174905E0496811F4003F1168B1
:1002C00018BF49084B43036063681349C3F3031322
:1002D0000B44197E0368CB4003601368084A9342BD
:1002E0001CD101221EE000BFEFBF0008C0000020AB
:1002F000EC30002000100240281B002000200240AB
:1003000000127A00041001401C000020001BB700FE
:100310005000002000093D00247A01084D4A934214
:1003200002D102224C4B1A70DFF860814B4B0DF169
:10033000880BC8F80C30A369DFF854C143F00103FF
:10034000A361636A464ECAF80830636A604643F0A8
:1003500080736362A369002743F01C03A3614FF617
:10036000FF732BF82C3D5946CDF80CC08DF85E700C
:1003700008F08FFE3046594608F08BFE3948594642
:1003800008F087FEDDF80CC0022322A98DF8433067
:100390004FF010094FF40073604621F8483D8DF886
:1003A0004290CCF81030CDF80CC008F072FE2E4A06
:1003B0005846536843F00073536006F093FB2B4A92
:1003C000179B3946B3FBF2F3294A2A4813601822D7
:1003D00015F019F8284B4FF47A721B68B3FBF2F34F
:1003E000264A013B5360F02388F8233007239760A7
:1003F0001360AB68DFF89C80214FC8F8003097E8A5
:100400000F008BE80F00A369179843F00803A3615E
:10041000A36918A943F00803A36108233361C6F850
:10042000109008F036FE19981AA908F032FED8F894
:1004300000301B0736D5134B93F89031012B31D880
:10044000114A104B926893F8913112F0805200F0EB
:10045000AE8627E0001BB700123100200005FA0528
:10046000000C0140001001400000014040420F001C
:100470006C2D00207C1400205000002010E000E0D3
:100480004C7A0108281B0020C000002000ED00E08D
:10049000000801400C230020954B002283F8912195
:1004A0000CF082FB642010F0F8FBA02291480021A0
:1004B00014F0A9FFE369002243F00703E361A36995
:1004C00043F4006343F00C03A3618B4B002403F15E
:1004D0000C01545401320E2AF7D1FF229A76DA76B3
:1004E0001A775A77854B864A21461A6085483C22FE
:1004F000D8F8006014F087FF214606F04007052376
:10050000814A804C885C0C224A4310553FB91E3802
:1005100001289FBFFF2003F1FF331055DBB20131EB
:100520000529EDD1794A69791370794B79481970A9
:10053000794B714ACAF82030C0330360774BB0065C
:1005400003EBC1035B7848BF01235362002240F2F2
:10055000DC50734B23F812000132082AF7D101292D
:1005600040F0A6806F4A70491468704A0A331268D6
:10057000B4F90C0046320A606D4A6E4E136011F0F9
:1005800099FF6D4912F09EF863896C4F3380E389BF
:10059000DFF8DC813B806A4B01461C60C8F8000034
:1005A00011F0DCFF4FF07E5111F0D0FE15F0DEFCB3
:1005B000D8F800804FF07E5111F0C8FE414612F08D
:1005C00081F815F02DF95F4911F0C8FF12F08CF990
:1005D0005D4B3C88188020B211F06CFF5B4911F034
:1005E000BDFF12F081F95A4B32881880594BC2F581
:1005F000617C1C80002426461FFA8CF302F5617290
:10060000049393B2544A05934FF4C8770FFA87FCCA
:1006100060460992CDF820C011F04CFF464912F017
:1006200051F84E4911F09AFF814615F00FFA0790E4
:10063000484615F081FA0690484610F07DFD814647
:10064000079908F1004011F089FF069B194611F047
:100650007BFE434911F082FF494611F07FFF12F003
:1006600043F9BDF91030DDF820C0099A80B29C45ED
:1006700022F8020F0EDBBDF914309C450ADC00B2F3
:1006800036B2864224B2A8BF0646A042B8BF204672
:10069000B6B284B20A37BBB2B3F5AF6F9FB2B5D171
:1006A00036B224B27642B442A8BF34462D4B1C80E9
:1006B00010A800211C2214F0A6FE2B4B2B4F1C6807
:1006C00014F4007804F4006654D0A30408D44EB1A6
:1006D00095F8842107F10C03012A08BF3B4603E08B
:1006E000049702E007F10C03049317AB169343E061
:1006F000281B0020BC2D0020C0000020001200207C
:100700001C1D002008120020579F010830100020F7
:1007100030070020D82E0020381B0020E0A7010859
:10072000EA0F00202C0700203407002008150020C5
:1007300038070020802D00200000204118090020EB
:10074000140900200000A0413E0700209999993E1D
:100750003C070020400700202808002035FA8E3C86
:1007600000007A44280800200C230020247A010885
:10077000842D0020CDF810806B790E2B03D003F070
:10078000EF03082B02D101238DF85230012009F02C
:1007900083FB18B14088003018BF0120C4F3400328
:1007A0008DF84630C4F380138DF84930C4F34033DC
:1007B00000F001008DF84030C4F3C0338DF84500DF
:1007C0008DF843303EB195F8846106F1FF3EDEF1CD
:1007D000000646EB0E06C4F300438DF84A30DAF803
:1007E000243018F1000818BF4FF00108003318BF7B
:1007F00001238DF84C30C4F300538DF84D30B5F81B
:10080000463104F00101ADF85030B5F85231C4F36F
:10081000C002ADF84E30C4F380438DF8473095F8F0
:1008200054318DF84460181C18BF0120E40448BFFF
:10083000B04C8DF8480048BFB4F84C41B5F85001B1
:10084000B5F844618DF84110ADF8566048BFADF879
:100850005640B0F5FA7F8DF842208DF84B80ADF808
:10086000540002D90BB9ADF8563095F8D431A248EE
:100870008AF8283000238AF8293043709DF85230D6
:10088000002B0CBF0023022301B902B1013307EB97
:100890008307BB6B4FF000099A1E1A33059207932A
:1008A000059B33F8024F05934FF6FF739C4200F00F
:1008B0009F819DF84520E3B2240AE5B21AB19A1E41
:1008C000012A40F290819DF8492032B18B491A01EA
:1008D00089588B4A914200F086819DF84A0030B1D8
:1008E00086491A018958864A914200F07C819DF818
:1008F000462052B18149039E01EB03114A68B2427E
:1009000003D10A89102A00F06E819DF8432052B16C
:100910007A49039E01EB03114A68B24203D10A8966
:10092000022A00F060819DF8442052B17349754E4F
:1009300001EB03114A68B24203D10A89022A00F08E
:100940005281169E7EB16D4F326807EB03177968AE
:10095000914208D13A89B188914200F04481F188EE
:10096000914200F04081022C02D19DF8402003E02A
:10097000012C04D19DF84120002A00F034819DF81B
:100980004C205E4C1E015AB19DF8522042B9A3F191
:100990000802012A04D8A2595B498A4208BF0425EB
:1009A0009DF84D20344452B19DF852203AB910B10F
:1009B0000C3B012B01E0043B032B40F2FC80012D9A
:1009C0004CD1524FDFF834C1FF2387F8703087F8DD
:1009D00071300CEB06035A7B586803F1080A1B8937
:1009E0004FF00008ADF85C3017A9022387F8748037
:1009F000C7F880408DF85F30CDF818C08DF85E20C4
:100A000087F82C80C7F83080C7F83480C7F8388062
:100A1000C7F86C8087F8728087F8738008F039FB1C
:100A2000DDF818C09AF802105CF80600424608F09B
:100A3000CEF9204641462A460EF068FB344BC7F8F3
:100A40008C80C7F88430334B2046C7F8883007F1D4
:100A5000840107F188020EF0A1FBC4E0022D5FD1F2
:100A60005FFA89F31C2101FB03FC284B002703EBF1
:100A70000C08224B4FF0010A9A19089302F108035F
:100A800059795068128988F875908DF85E1088F849
:100A9000767017A988F87E7088F874A0C8F880402E
:100AA000CDF824C00693ADF85C208DF85F5008F0B7
:100AB000F0FA089B3A469859069BD144997808F079
:100AC00086F92046394652460EF020FB124A0F4B5B
:100AD000DDF824C0C8F884209C44104A0CF184013D
:100AE000C8F88820C8F88C7020460A1D0EF056FB06
:100AF00079E000BF281B0020E9000020609B01086E
:100B000000040040000C0140002C0140C000002007
:100B1000018B0008E18B0008098E0008D98A0008C3
:100B2000032D46D19DF84730964D974ED3B19DF891
:100B30004830964F95F82A8053B1954BBDF8542014
:100B40002046B3FBF2F2082192B2BDF8563003E022
:100B500020464FF6FF72082108F08EFB46F8280069
:100B6000C76020E0BDF8542095F82A70B2F5FA7FEE
:100B7000BDF856300BD986492046B1FBF2F2082168
:100B800092B208F079FB834B46F827000AE08249CD
:100B90002046B1FBF2F2012192B208F06DFB7B4BD3
:100BA00046F82700C36095F82A30013385F82A30CB
:100BB00019E0042D17D1BDF84E20774B714D93FBF2
:100BC000F2F22046BDF85030012192B295F829602A
:100BD00008F052FB95F8293005EB86060133C6F87C
:100BE000540185F82930059B079A93427FF458AE4B
:100BF000644F6A4E97F82930002487F87431684BA7
:100C000034701D78A5F11703022B18D83B6A002118
:100C1000185903EB040811F035FE10B17B6A5BBB79
:100C200025E0604B04EB030E98E80F008EE80F0000
:100C3000337810340133C02C3370E7D1EEE75A4BD0
:100C400013F835C003EBC503D3F8048086F800C061
:100C5000B8F1000FE2D06445E0DA524A230103EB19
:100C6000020E43440FCB01348EE80F00F3E74F4FE1
:100C70003B68DB0424D41DE04D4B4E4A13F835008D
:100C800003EBC5035C681070002CF0D00023834296
:100C9000EDDAC3EBC3016218D2F800C0DFF83CE123
:100CA000013341F80EC001EB0E079188B9809279AB
:100CB000BA71ECE705F0EF03082B3F4B24D125E098
:100CC0003378012BF6D93D4C04EB031303F11006E6
:100CD0001034B442EED054F8100C4FF07C5111F0A7
:100CE0003DFC4FF07C5144F8100C54F8140C11F0FA
:100CF00035FC4FF07C5144F8140C54F80C0C11F0F6
:100D00002DFC44F80C0CE3E70E2D08D11A78182DB1
:100D100042F010021A7008D110F0D4FA05E01A78E7
:100D2000192D22F010021A70F5E710F0AFFA3B68A7
:100D3000234D5E035EBF234B01221A70224A234ECD
:100D40001378234843F0040313702B784FF4805238
:100D5000022B34BF142310238DF85E304FF00203B2
:100D60008DF85F30B369ADF85C2043F00403B361E4
:100D700034BF0024012417A908F08BF9154B7CB36C
:100D8000154A2EE0C0000020882D0020F18B0008BD
:100D900000127A00018C000840420F00B82D00209C
:100DA0003007002044070020E0A701080C230020A2
:100DB00054820108642E0020602500204C0700208A
:100DC00012310020600D0020EC30002000100240A5
:100DD00000080140FC300020250C0108652E002091
:100DE000BE4A00201A600FF079FFBD4BBD4C93E85E
:100DF0000300B3698BE8030043F00803B36117985D
:100E000018A908F046F9F3694FF0030943F4804349
:100E1000F3613369204643F48043336118238DF82E
:100E20005E3059464FF42043ADF85C304FF0040A71
:100E30008DF85F9008F02DF94FF480432046594615
:100E40004FF48058ADF85C308DF85EA008F021F9C1
:100E50001023204659468DF85E30ADF85C8008F0CE
:100E600018F93369322043F480433361336923F442
:100E7000804333619C4B1A8802F4415242F445721C
:100E800042EA09021A80998B072221F400610904C1
:100E9000090C99831A821A8892B242F040021A8091
:100EA0009F23C4F810808DF83C3000238DF83D302E
:100EB0008DF83E308DF83F300FF0EFFE5246C4F80B
:100EC000148058460FA909F003FEC4F810809DF85D
:100ED0005E309DF85D201B0243EA02439DF85F20CF
:100EE0001343824A934214D032200FF0D6FEC4F846
:100EF0001480F52009F022FEFF2009F01FFE702863
:100F0000C4F8108005D12B78022B04BF784B83F8EE
:100F100000902B78032B0CBF1F20022008F03FFF0E
:100F20002B78032B03D0012009F093FB07E002206C
:100F300008F0B2FF0028F6D04388002BF3D095F8D4
:100F400000906C4D4FF0100B284600215A463C682B
:100F500014F059FA4FF6FF73ADF83C30022304F455
:100F6000004804F400674FF0000A1C408DF83E3042
:100F70008DF83FA00DD060480FA9ADF83CB005F04A
:100F8000FBFD04232B700124072385F801A0AC701E
:100F9000EB70B8F1000F0ED0022357480FA9ADF83F
:100FA0003C3005F0E9FD0123E2182B71AB710723FA
:100FB0006C71EB71D4B2B9F1010F0FD920234E48F7
:100FC0000FA9ADF83C3005F0D7FD052301222B72A7
:100FD000AA72631C07226C72EA72DCB27FB1022330
:100FE00040480FA9ADF83C3005F0C6FD09230122A9
:100FF0002B73AA73631C07226C73EA73DCB27368E9
:101000003E4843F44043736073693C4F43F001032F
:101010007361B36943F40073B36105F074FE17A8FC
:1010200005F046FE364B00261793364B012C1893DD
:1010300094BF334680231C934FF480731D934FF469
:1010400080631E93202317A91F9338464FF4005343
:101050001A94209319961B96219605F036FE3B684C
:10106000294A43F001033B605368012C23F47023A9
:1010700094BF0021012123F4807343EA01235360CC
:101080009168224B013C0B40314643F4602343F00E
:1010900002039360D36AE4B223F4700343EA045476
:1010A000D46201236A18907800286BD06C5C581CBD
:1010B000092CC0B2D278144F2AD9A4F10A06D7F865
:1010C0000CC006EB46064FF0070E0EFA06FE2CEAA1
:1010D0000E0EB2404EEA0202FA6026E0390C010818
:1010E0006C7A0108000C01400038004015202000F7
:1010F0001231002070120020000801400800024058
:101100004C2401408012002000240140FDF7F1FF33
:101110003E6904EB440C4FF0070E0EFA0CFE26EA73
:101120000E0602FA0CF232433A61062B384E0CD806
:101130005A1E776B02EB82021F23934027EA0307B4
:1011400004FA02F33B4373631BE00C2B0CD8DA1F49
:10115000376B02EB82021F23934027EA030704FA4E
:1011600002F33B4333630CE0A3F10D02F76A02EB99
:1011700082021F23934027EA030704FA02F33B434A
:10118000F3620346043110298CD1214B9A6842F452
:1011900080729A609A6842F001029A609A6842F0FE
:1011A00008029A6099681A4A0D0735D5FAE7013B9B
:1011B000092B3FF677A9F86A04925946C6F81490AD
:1011C000CBF80000039807F064FF039B3C201A460D
:1011D000082313610FF061FD049AC6F810901646BB
:1011E00095F891319E42BFF657A9039BDFF82490F2
:1011F0000827C9F8107078205F610FF043FD039B4A
:10120000C9F8147078201F610FF03CFD0136E7E744
:1012100000240140000C0140936843F004039360F4
:10122000B14B9D6815F00405FAD19A6842F4A0020A
:101230009A60AE4BB3F85801002840F0E785B3F947
:101240005A21002A40F0E285B3F95C31002B40F0CE
:10125000DD85A74E33689C0320D5C8200FF01DFD07
:10126000AE2009F076F908B109F078F9A14C84F8BC
:101270007501C8200FF011FD9F4B0021C4F8783193
:101280009E4C0C22204614F0BEF80223E3700EF0B0
:1012900084F90FF0DBFC9A4B0344A360994F934C05
:1012A0003B6894F85F0194F8691194F86A21B3F9E6
:1012B0005E3006F035F8B84610B901200FF076FD23
:1012C000914A0A27137843F0020313708F4B1022C0
:1012D0005A6108221A61DFF834921920D9F80C30CB
:1012E000013F83F01003C9F80C30D9F80C3083F0BB
:1012F0000803C9F80C300FF0D0FC01200FF0EEFC11
:1013000019200FF0CAFC00200FF0E8FC17F0FF07CF
:10131000E1D108234FF0100A7D4FC9F81030C9F809
:1013200010A03B68180709D57A4BC9F814A01B68B0
:101330009847794B0122C9F810A01A70774B1B68A7
:10134000187B11F0B7F8764911F008F9754910F0DB
:10135000FDFF0BF0C2F8744B71491860734B1869AC
:1013600011F0FCF8724B1860724B188811F0A2F85B
:101370000146714811F0A6F9704911F0A3F9704BBC
:1013800018600BF0FFFF6F4BFF2118461C2214F072
:101390003AF8DFF8B4E10022734602703A6801219E
:1013A00012F0020F8EF800101FBF417003218EF85B
:1013B0000010022118BF8170510741BF9EF8001034
:1013C00001F1010E83F800E04FF0030E48BF00F872
:1013D00001E012F00A0F0ED01A7804218154511C3A
:1013E000C9B24FF0050E00F801E0D11C02321970AD
:1013F000D2B206218154D6F800E094F805C01EF060
:10140000200F1FBF1A78511C1970072118BF815473
:10141000BCF1080F02D0BCF10E0F04D11A78511C98
:1014200019700B2181541A781EF4803F4FF00C097B
:1014300000F8029002F101011CBFDFF80C910232AA
:10144000C9B219701FBF89F800203E4A4FF00E093B
:1014500002F801901EF0040F18BF1A784FF0120A1C
:101460001FBF511C197010218154374A1EF4806F20
:10147000117801F101095FFA89F982F8009000F80A
:1014800001A00BD094F820A2BAF1000F06D00231CF
:1014900011702C494FF0130A01F809A01EF4007FC7
:1014A0001FBF117801F1010982F800904FF0150972
:1014B00018BF00F80190BCF1180F47D111784FF018
:1014C000160900F8019001F101095FFA89F94FF05E
:1014D000170A00F809A001F103090231C9B282F824
:1014E000009000F801C031E000240140281B0020DA
:1014F0000C230020C0000020B01C0020EC0E0020B7
:10150000404B4C00FC0F0020EC300020000C014050
:10151000A8230020C0140020D00500203025002082
:1015200035FA8E3CDB0FC93F5C25002000140020FB
:101530004C250020380000200AE81C4100401C46D1
:10154000DC060020C10F0020C00F00201EF4002F79
:101550001FBF117801F1010C82F800C04FF0190C87
:1015600018BF00F801C01EF4807F1FBF117801F181
:10157000010E82F800E01A2218BF42541A78142192
:101580008154911C01321970D2B21B238354002163
:1015900098227D4813F037FF05F0E2FD7B497C4B34
:1015A0007C481960B4F84E217B4B01607B491A805E
:1015B00000237B4AD8F800E00B70B4F89611138032
:1015C00093701FFA81F90EF18102DFF81882DFF8BB
:1015D00018C2D8F80000DFF814A200F596704AF897
:1015E00023002CF813900133122B6046EDD1D6F86E
:1015F00000C00EF1D10E1CF4805F08BFB4F89C91BE
:10160000A0F806901378F3B992F80290D378994530
:1016100019D2B9F1000F08D009F1FF3909EB890996
:1016200009EB890909F5617306E0013303EB8303D4
:1016300003EB830303F5617392F801909BB209F108
:10164000040920F8193004327245DBD11CF0080F70
:1016500000F0FC8094F89031062B00F2F180DFE876
:1016600003F004070E355172720045F2F05201E0AA
:1016700042F6F8224B4B1A8005F00DFEDFE042F6F1
:10168000F822484B09011A800A2391FBF3F1002349
:10169000A1F5B061444A42F823100133122BF9D16D
:1016A000424A434940201160424A137008F0CEFC80
:1016B000002800F0C58001234FF0070A90F90000D0
:1016C00040218DE808043C4A3C4BB3E042F6F82246
:1016D000344B40201A803A4A344B1A60354B102262
:1016E0001A7008F0B3FC002800F0AA8001234FF024
:1016F000000990F9000040218DE80802314A4FF4BA
:10170000E13397E042F6F822264B40201A802E4A19
:10171000264B1A60274B08221A7008F097FC002805
:1017200000F08E8001234FF0000C90F90000402162
:101730008DE80810254A4FF4E13308F05DFB244B97
:10174000C3F87C0178E042F6F821164A062B118096
:1017500018494FF00C02DFF898C0DFF898E01D4CF4
:101760001D480A7048D0002323708CF800308EF892
:1017700000301B230370194B4FF4E1341A70184BDF
:1017800005221A7045E000BF50130020B01C002055
:10179000D40E002018130020D80E00200F0E0020B9
:1017A00024130020500F0020E4100020240000200B
:1017B00085650008EC13002001680008A086010080
:1017C0007165000855670008596500080967000839
:1017D000C000002070110020721100207110002044
:1017E00073110020FC1A0020D61A0020580E002089
:1017F0007210002071110020002121708CF800105F
:101800008EF8001021210170B949BA4C0A70BA4A09
:101810001370BA4ABA4B40201A6008F017FC78B12E
:1018200001234FF0000E90F900008DE80840234698
:10183000B44A402108F0E0FA003018BF012028B96E
:1018400008200AF0DBFEB04AAD4B1A603368AF4A9D
:1018500013F4804F1FBF12211170AD48A84918BF63
:10186000086042F20101194099B144F62060A9498B
:101870000880990441BF08211170A748A04948BFBA
:101880000860DC0741BF0C211170A4489C4948BF87
:10189000086011789805A1F10401517053D5A04A50
:1018A000A04C049B4FF01009236093699E4843F0BD
:1018B00001039361049B0EA91B888DF83A90ADF843
:1018C000383002238DF83B3007F0E3FB236896485D
:1018D0005B880EA9ADF8383004238DF83A3007F054
:1018E000D8FB23680120197A07F0BEFB23688F4AD2
:1018F0005B684FF0000A536117A88DF861904FF0B4
:10190000010917938DF860A08DF8629005F093F9A6
:1019100023680FA85B7A8DF83EA08DF83C30032336
:101920008DF83D308DF83F9009F0B4F8D8F80030CC
:101930007F4A3C3B13603B684FF0FF3243F010039B
:101940003B607C4B1A607C4B7C4A7D4C13607D4A2B
:101950008033136033680027D903277040F1B280C9
:1019600040F22A39DFF808A2DFF8B4B10DF09CF894
:101970004FF001084A465046394684F8008013F07B
:1019800042FDDBF81830704843F00403CBF8183000
:101990004023ADF8383018238DF83B300EA90323CF
:1019A0008DF83A3005F0E8F8DBF81C30674A43F070
:1019B0000203CBF81C30664B664C1B68ABF6947B7D
:1019C000B3FBF2F32288013B22F45C721204120C86
:1019D00022809BB21D22A2852385A4F81480238C2B
:1019E00023F001031B041B0C2384238CA188228B6E
:1019F00023F0020322F0730212041B04120C1B0CCE
:101A000089B242F0600243EA0803A1802283A786DC
:101A10002384238B23F008031B041B0C43F00803CF
:101A20002383B4F844306FEA43436FEA53439BB2D5
:101A3000A4F84430DBF8A83F43EA0803CBF8A83FFA
:101A4000584605F060F917A805F032F9424BCDF879
:101A500060A0179380231C934FF480734FF0100AFB
:101A60001D9358464FF4005317A92093CDF864A056
:101A7000CDF868901B971E971F97219705F025F9C1
:101A8000A3890FA89BB243F40073A381DBF8003055
:101A900043F00203CBF800308DF83CA08DF83D8078
:101AA0008DF83E708DF83F8008F0F4FF2B4B1A68DC
:101AB0002B4B43F825200135202DF7D107F0F6F9FF
:101AC00007F0F4F933685A0540F18880254C264B1D
:101AD000D4F8AC6404201E6008F0B8FA0421C4F8FD
:101AE000B00408F08FFA214B84F8B40442E000BF40
:101AF0007110002090D00300731100208164000851
:101B000024000020E9650008E5650008EC130020CA
:101B1000B5650008500F0020D5650008C5650008B0
:101B200000100240F4060020000C014000040140B7
:101B3000F00600201C100020581D00200415002075
:101B4000610D0020001500200008014000366E01E4
:101B5000500000200004004034040040747A010862
:101B6000620D0020C0000020182300205C2300200C
:101B70004002002008201E6008F068FA884B082107
:101B8000186008F03FFA874D2C22002184F8B50434
:101B9000284613F038FC7C232B708E236B70E023D7
:101BA000EB7010207D2385F82B30C4F8B86408F062
:101BB0004DFA1021C4F8BC0408F024FA84F8C004DB
:101BC0002020C4F8C46408F041FA2021C4F8C804F5
:101BD00008F018FA84F8CC040DF0B6FB724B734C85
:101BE0001B78022B65D1724A00251388322023F01E
:101BF00040031B041B0C138013884FF4805623F002
:101C000038031B041B0C138013889BB243F0400362
:101C100013809F238DF83C308DF83D508DF83E5059
:101C20008DF83F500FF039F88DF85D50614D04226A
:101C30006E6117A80FA908F04BFF2E619DF85E306A
:101C40009DF85D201B0243EA02429DF85F3013437A
:101C5000594A934219D00AD8A2F51A42033A93423C
:101C60000CD002F51A420232934209D01CE0534ACA
:101C7000934205D00132934207D015E0202300E0C3
:101C8000802323804FF4807302E04FF4807323801D
:101C90006380A38822881B02A3605343E360484B00
:101CA000012283F8CD2404E0002323806380A36015
:101CB000E360E4680CB3E40A26460027A7420ADA88
:101CC0003D196D100DF15C08E8024146102207F045
:101CD0003DFC0F2806DC0DF029F9394BF602C3F85C
:101CE000D0640AE0002358F82320013255D1013393
:101CF000042BF8D12E462C46E0E7324C324A2368BA
:101D000013F4002318BF012313700EF09FFF2F4B15
:101D100018602F4B5A791946052A02BF2D4B4FF4F4
:101D2000C8721A802C4B4FF47A721A802B4BC8223F
:101D30001A802B4A137843F008031370294A13784A
:101D400023F00203137040F60203226813406BB1C4
:101D50002548264B1860264B03201870254B012080
:101D6000187025480023038024480380930341BF53
:101D7000234B03221A71DA7844BF42F00102DA7071
:101D80008B68012223601F4B1A701F4A137863F07F
:101D90007F03137023B0BDE8F08F6F1C2546AAE7C0
:101DA000782300202C230020123100200C0000207A
:101DB00000380040000C014018BA20001740EF0026
:101DC000C00000200C230020DC2E0020F80600209C
:101DD000281B0020FC2400200E3100200C310020A4
:101DE0006025002016310020A21C002010230020B6
:101DF000602300204C000020780F00207A0F002084
:101E0000EC0E0020600D0020EC300020464B00223C
:101E10001A7000B210F04EFB444910F09FFB444C86
:101E20000746B4F95A0110F045FB404910F096FB03
:101E30000646B4F95C0110F03DFB3C4910F08EFB06
:101E40003C490446384610F081FA0AF046FB8146C8
:101E500038460AF042FB37490746304610F076FA1A
:101E60000AF03BFB804630460AF037FB3149064614
:101E7000204610F06BFA0AF030FB834620460AF049
:101E80002CFB49468246584610F068FB49460390B1
:101E9000504610F063FB59460590384610F05EFB43
:101EA00051460690384610F059FB41460790584677
:101EB00010F054FB204C5146206008F1004010F017
:101EC0004DFB31466060A660069810F047FB014666
:101ED000059810F03BFA3146E060079810F03EFBA1
:101EE0000146039810F030FA4146206107F10040A6
:101EF00010F034FB31466061039810F02FFB01466F
:101F0000079810F021FA3146A061059810F026FBE1
:101F10000146069810F01AFA4946E061404610F072
:101F20001DFB2062FFF795B92000002035FA8E3C9A
:101F3000281B0020DB0FC93F4C120020A0492DE9CF
:101F4000F04F0A689F4C02F59C43203323609E4B60
:101F500089B01E780191C6B19C4909688A4240F255
:101F60000381013E1E70FFE0D9F80030072D98BFB5
:101F7000595D974B88BF29461B6896489847032DA3
:101F80000CD904EB4505A8800136924BF5B21A78BE
:101F9000DFF86492AA421946E6D820E0D9F800207A
:101FA00005F10E0302EB83039988DA880028E8D054
:101FB0004FF47A73401A5843531A90FBF3F040F6EB
:101FC000C90300F57A70984205DC40F2EE2398428E
:101FD000B8BF184601E040F6CA0080B2D1E742F22D
:101FE00001087D4B1B6803EA0808B8FA88F87B4BA8
:101FF0004FEA58181B68B8F1000F06D194F8292051
:1020000084F82820764A5078107094F828701FB110
:10201000734A177887F0010794F82BB00326BBFBAF
:10202000F6F60F2206EB460684F82A20C6EB0B06CE
:10203000D9F8002091F800A0DFF8C491F6B200258D
:10204000554559DA4FEA450C1FB1664931F815007C
:1020500000E03846918ADFF8ACE1814202D8D18AAB
:1020600081421ED25EF825005649834203D25E4962
:1020700031F80C0019E0E8B203920293049104F0E5
:10208000F5FF032D029B039A0FDC04994FF0010C1E
:1020900091F82AE00CFA05FC2EEA0C0E81F82AE0F1
:1020A00003E003F596714EF82510B8F1000F1CD12E
:1020B00094F8BC1029F8160031B9BBF1020F14D9FD
:1020C0004049012081F8BC00B9F80210B9F80000BD
:1020D0000844B9F804100844444980B221F81500B6
:1020E00000B2032190FBF1F080B23F4909F10609EB
:1020F00021F815000135A3E794F82A203C4BA2F102
:102100000F014A424A4184F8D62034496AB1394A1B
:102110001268520109D40A68D9689A60521AC82A0A
:102120001DD9012283F8212019E02D4A0120507089
:1021300010700A689968DA605B68521A9A4282BF26
:102140002B4B002283F821200025554507DAE8B201
:1021500004F08CFF244B23F815000135F5E794F8C3
:102160002B30013384F82B301B4E3368DB0405D54C
:10217000204B1B68DF0701D40FF088FA019B1F6812
:102180001D4BD3F800E09EF80A0000283CD0164A08
:102190009EF80C30013832F810001BB1C0F53B60DE
:1021A000083080B200B2A0F57A70B0F57A7FA8BF8F
:1021B0004FF47A7020EAE07010F07CF90F4959E092
:1021C000F4300020E40D0020201300201C13002018
:1021D00024000020EC1300200C230020FC1A002017
:1021E00009000020E80D0020D61A0020A20E0020D1
:1021F00024130020BC0F00201813002000007A4494
:10220000100E0020580E002033681D043BD5D4F872
:10221000D830A44DFB1A002B35DB07F59C43203347
:10222000C5F8D830A04B5A79A04B33F812108AB2B7
:102230009EF80B1092FBF1F195F8DC20013202F0D0
:102240000F0385F8DC302B4483F8DD100346984AF1
:10225000825C0130134410289BB2F8D11BB293FB6F
:10226000F0F000B26428A8BF642020EAE07010F00B
:1022700021F9904910F026FA8F4910F06FF910F00B
:1022800059FB8E4B188033688D4D13F4807F00F01E
:10229000EF808C4BDFF830929F4205D999F80220ED
:1022A00012B9012289F8022099F80220002A00F0D0
:1022B000DF80854A95F8008092F82170834A781E65
:1022C0009246474211684741002FC1F38063C8F32B
:1022D0008008019314BF4FF0000B4FF0030B99F8E7
:1022E0002020052A00F2BE80DFE802F0034E537979
:1022F00088A5B8F1000F3AD0D4F8F000B4F8F41083
:1023000007F041FF012809D17149724A0968126832
:10231000C988642000FB0122C9F81020019B6BB121
:102320006B4A126812794AB10FF0B8FB032289F8A0
:1023300020204FF47A72C9F81C20D0E7002F40F01B
:102340009180644AD9F8101010685F4A88420AD90F
:1023500002920FF0A3FB029A032182F8201040F6AC
:10236000B831D161BBE7012182F82010B7E7019BAA
:102370004FF4806013B10AF031F901E00AF01EF960
:102380000022C9F810206DE0002F49D10FF086FB24
:10239000A5E727B1052289F82020012000E0384672
:1023A000B8F1000F0CD0D4F8F0204FF0020BD18917
:1023B000494A118051809180454909684988D180F6
:1023C000444A1168D9F81420914202D8B8F1000F9C
:1023D00045D147F23052C9F81C20032221E02A7867
:1023E00042F002022A700FF051F93A4AD9F81C1053
:1023F00012680A44C9F81820042212E0354A9FB135
:102400001168D9F8182091422CD9344A92781AB917
:10241000DAF80020D10725D42A7822F002022A70A7
:10242000052289F820205AE71268D9F81C100A44BE
:10243000C9F8182016E02649264A09681268C98892
:10244000642000FB01224FF48060C9F810200022B4
:1024500089F8202089F803200AF0B0F83FE7002827
:102460007FF43DAFBBF1000F02D058460EF050FC98
:102470001B4F07F5C470B7F84E1107F084FE0197A3
:10248000804678BB0FF000FB019B93F8E231012BF3
:1024900005D9104BD4F8F8201B689A422DD20FF0C2
:1024A000E3FA2AE0E40D00207012002080120020E0
:1024B000C10E00200000C84200C07F442010002050
:1024C00016310020404B4C0024130020BC0F00208C
:1024D000E8300020FC1A0020D61A00200900002055
:1024E000281B0020954B019A1B6892F8E2214FF4BB
:1024F0007A7101FB0233C4F8F8302B785A0736D5CD
:102500003368DB0633D58E4B1B78DF062FD48D4B1B
:102510009B789BB1019B93F8E031B8F1000F15D186
:102520007BB1864B1A68D4F8FC309B1A002B08DA72
:102530000FF0ACF8844B83F8008118E0B8F1000F7D
:102540000DD110200EF0E4FB01230EE03BB17B4ADD
:102550004FF47A71126801FB0323C4F8FC3094F83D
:10256000003123B10EF0C0FB002384F80031019B41
:10257000002293F8DEB193F8DF11B3F898E1B3F8D5
:102580009AC1134671489B0830F9127001327745A1
:10259000C4BF63F07F03DBB26745B8BF43F04003BD
:1025A000042A8246EED194F8012167489A4205D167
:1025B00090F80221F92A04D8013200E0002280F8C4
:1025C000022184F801315F4B5F4A98789946604F49
:1025D00038BB3B68D80708D5B8F1000F21D12B785C
:1025E000DB071ED50EF0B0FE1BE02B78580715D583
:1025F00092F8283093B1574BDB787BB992F80331CE
:102600000133DBB2032B82F803310AD911B10FF089
:102610003DF806E0B8F1000F03D1F8E7002384F895
:10262000033194F80231484A142BDFF8448140F01A
:10263000A88099F802301BF1000B18BF4FF0010B76
:102640006BB392F801315F2B11D12B7803F00403A7
:1026500003F0FF0113B10FF019F808E00B2003910C
:1026600002920EF055FB029A039982F80211BBF117
:10267000000F14D094F801317D2B10D12B7803F08A
:10268000040303F0FF0213B10FF000F807E00B2082
:1026900002920EF03DFB2C4B029A83F802212B781C
:1026A00003F0040303F0FF01002B6AD194F8013119
:1026B000254A572B0AD1284B4FF47A721A80274BA0
:1026C0001B685B075DD50A22254B34E03068400764
:1026D00016D55A2B14D1234B187820B11970224BE0
:1026E00001221A704DE092F8043183F0010382F860
:1026F00004310BB10C2000E00D200EF009FB40E08E
:102700005D2B00F077845B2B00F076845E2B02D18A
:10271000032000F072BC562B01D10AF045FA99F85B
:1027200002303BBB94F80131074A972B40F07E847E
:102730000E4B4FF4C8721A8023E000BFFC1A002031
:102740006025002009000020E40D0020D61A00209A
:10275000BC0F0020241300200E310020A8230020ED
:102760000C310020292500202A250020FC240020EF
:10277000FC0F002094F801316F2B40F04E840EF0D6
:10278000E3FD3368580732D594F80431A3B12B78B0
:10279000590711D5019BBAF90620B3F898319A422E
:1027A0000ADD3B6813F0010301BFAD4A32211180FD
:1027B000AC4A08BF82F804313B68DA030AD5AA4B59
:1027C0001A782AB9A94A127812B9A54A3221118079
:1027D00001220BE0A54A13784BB12B7803F00403D8
:1027E00003F0FF011BB9A24B117001221A70D8F837
:1027F000009000233B6009F1830809F1D30A98F89F
:10280000002098F8013018F8010C9A420BD241468A
:1028100007F084FC38B118F8022C012303FA02F205
:102820003B6813433B6008F10408D045E7D1914B66
:102830001B7853B1904FDFF858923B68DFF8548211
:1028400013F0020F40F03A8332E309F1D20709F5A1
:102850008D783A787B7817F8010C9A4225D2394660
:1028600007F05CFC08B397F804C00C21BB7801FBAF
:102870000C41824A013B03EB43031344D1F8182176
:1028800097F803909A4277480FD0C1F81831002387
:1028900090F84421C1F81C31012303FA0CF322EA19
:1028A000030381F8149180F8443106374745D0D1AD
:1028B000734BDFF8E4A1D3F80080724B4FF0000BAC
:1028C0001B68029394F828300393DAF80020002A5A
:1028D00000F0E58292F80090B9F1000F00F0DF827D
:1028E000DAF804300299CB1A002B0CDB01F5FA73ED
:1028F000CAF8043094F84411012303FA0BF321EAD7
:10290000030384F84431039B002B00F0C8821AF8BB
:10291000043C51780433DBB2002940F080825A49EC
:1029200031F91310594BB3F8963103F1C8008142C5
:1029300001DD977814E0C83B994202DA91784F4262
:102940000EE094F84421012303FA0BF322EA030377
:1029500084F84431029B03F5FA73CAF804309EE20E
:1029600094F8443143FA0BF3DB0700F19882002F0F
:10297000CCBF022001200EF001FA09F1FF32394BE1
:10298000132A00F28482DFE812F0140023003200E0
:10299000440061008900EE005301B801EB011A0206
:1029A0008202440055008900EE005301C000250159
:1029B0008A0198F8001040460F44FA2FA8BFFA2762
:1029C00027EAE77788F8007007F08EFB01201EE009
:1029D00098F8011040460F44642FA8BF642727EAE7
:1029E000E77788F8017007F07FFB02200FE098F886
:1029F000031040460F44642FA8BF642727EAE777F7
:102A000088F80370D3F8481107F026FB03203946F5
:102A1000D2E198F805100D2039446429A8BF64213B
:102A200021EAE17188F8051007F0DCFBB9F10D0F20
:102A300000F02D8298F804100E2039446429A8BFB4
:102A4000642121EAE17188F80410B5E198F80610D4
:102A50000520394481F3080188F80610ACE100BF75
:102A600010250020E40D0020282500202925002025
:102A70002A25002014310020BC0F00205C7D0108B5
:102A800024100020FC1A0020D61A0020281B002049
:102A9000A8230020AE230020FC0E0020D3F84C31E8
:102AA0001A78022A22D1384604930FF003FDA9496F
:102AB0000FF008FE049B596A05930FF047FC0021B4
:102AC00004900FF0E9FE059B48B9049AA14910460D
:102AD0000FF000FF049A059B10B19E4A00E000220F
:102AE0005A620F20114607F069FB0AE099780F201F
:102AF0003944C829A8BFC82121EAE171997007F0BB
:102B000071FBB9F10F0F00F0C281934BD3F84C91D8
:102B100099F80030022B1AD138460FF0CBFC8D49C2
:102B20000FF0D0FDD9F820100FF010FC002107465F
:102B30000FF0B2FE30B9384686490FF0CBFE10B127
:102B4000844F00E00027C9F82070122057E199F85F
:102B5000011012203944C829A8BFC82121EAE17117
:102B600089F8011028E1D3F84C311A78022A22D1D1
:102B7000384604930FF09EFC76490FF0A3FD049BAA
:102B8000196B05930FF0E2FB002104900FF084FE17
:102B9000059B48B9049A6F4910460FF09BFE049AB2
:102BA000059B10B16B4A00E000221A631020114609
:102BB00007F004FB0AE0197B10203944C829A8BF9C
:102BC000C82121EAE171197307F00CFBB9F1100F6C
:102BD00000F05D81604BD3F84C9199F80030022BE6
:102BE0001AD138460FF066FC5A490FF06BFDD9F840
:102BF0002C100FF0ABFB002107460FF04DFE30B953
:102C0000384654490FF066FE10B1524F00E00027DD
:102C1000C9F82C701320F2E099F80B1013203944F6
:102C2000C829A8BFC82121EAE17189F80B10C3E0C7
:102C3000D3F84C311A78022A22D1384604930FF087
:102C400039FC46490FF03EFD049BD96B05930FF00C
:102C50007DFB002104900FF01FFE059B48B9049AEC
:102C60003C4910460FF036FE049A059B10B1394AD4
:102C700000E00022DA631120114607F09FFA0AE013
:102C8000997D11203944C829A8BFC82121EAE171E2
:102C9000997507F0A7FAB9F1110F00F0F8802E4BE3
:102CA000D3F84C9199F80030022B1AD138460FF026
:102CB00001FC2A490FF006FDD9F838100FF046FB49
:102CC000002107460FF0E8FD30B9384621490FF0E2
:102CD00001FE10B11F4F00E00027C9F83870142022
:102CE0008DE099F8151014203944C829A8BFC821CF
:102CF00021EAE17189F815105EE0D3F84C9199F85A
:102D00000030022B1AD138460FF0D4FB11490FF0D6
:102D1000D9FCD9F828100FF019FB002107460FF055
:102D2000BBFD30B938460B490FF0D4FD10B1094F47
:102D300000E00027C9F82870092060E099F8031026
:102D400009203944C829A8BFC82121EAE17189F8BE
:102D5000031031E00000C842E40D002000007A4476
:102D6000D3F84C9199F80030022B1AD138460FF065
:102D7000A1FBBB490FF0A6FCD9F834100FF0E6FA1E
:102D8000002107460FF088FD30B93846B4490FF0EE
:102D9000A1FD10B1B24F00E00027C9F834700A203D
:102DA0002DE099F80D100A203944C829A8BFC82180
:102DB00021EAE17189F80D1007F014FA67E0D3F801
:102DC0004C9199F80030022B1DD138460FF072FB60
:102DD000A4490FF077FCD9F840100FF0B7FA0021A2
:102DE00007460FF059FD30B938469D490FF072FD86
:102DF00010B19B4F00E00027C9F840700B20394606
:102E000007F0DCF943E099F817100B203944C82982
:102E1000A8BFC82121EAE17189F81710CCE7012980
:102E200035D19078904A32F91370B7F5617F05DBA0
:102E300040F633039F42A8BF1F4601E04FF461777D
:102E4000B9F10C0F23D14FF4966393FBF0F0A7F583
:102E5000617797FBF0F7854AFFB21378BB4216D033
:102E6000042F34BF3B460223019913700E2202FB4C
:102E700003137F4A03F2AE73136009F09FFC4846C8
:102E8000394607F0AFF9781CC0B20DF077FF94F81F
:102E90004421012303FA0BF3134384F844310BF16B
:102EA000010BBBF1040F0AF10C0A7FF40EADC1E473
:102EB0003368D80511D56F4BDB7873B1D9F8003082
:102EC00099070AD5B8F8003013F0010A0AD10EF0BC
:102ED000DBFD012009F082FB04E0012009F06EFB1C
:102EE000012300E000233A6852070DD563B10120A9
:102EF00009F064FBB8F80030980708D40EF0C4FD60
:102F0000022009F06BFB02E0022009F057FBB8F841
:102F10000030594A13F0030F4FF0100114BF5161F4
:102F20001161D9F8002012F00A0F2DD03A68D106AD
:102F30000DD55A070ED4042009F050FB4F4B0A223E
:102F4000B3F9043093FBF2F3A4F8503102E004200B
:102F500009F034FB3B689B0607D5B8F800305806EB
:102F600006D4402009F03AFB02E0402009F026FB9D
:102F70003B68590641BF414B0A22B3F9043093FB29
:102F8000F2F348BFA4F852313B684FF480701A0541
:102F900002D509F023FB01E009F010FB384B5A7908
:102FA0001C46082A01D00E2A02D1402009F006FB57
:102FB00033685B0540F1998094F820321BB92B7877
:102FC00013F0040F02E03B6813F4002F0BD02D4BDD
:102FD00000221A703C2003F03FFC002800F085809E
:102FE0000DF002FBF6E70CF0AFF909B0BDE8F04FC9
:102FF00004F0B6B8012000E002205FFA80F9019ADF
:1030000009F1FF3382F8AC3709F032FB09F0FAFB23
:1030100048460DF0B3FEFFF7B4BBBBF1000F3FF421
:1030200081AB7E2B7FF47EABFFF7A9BBA72B06D12C
:10303000154A137843F004031370FFF7A2BB002175
:10304000BB2B079101D1022303E0B72B04D14FF62C
:10305000FE73ADF81E301FE0BE2B17D1022319E01E
:103060000000C84200007A44D61A0020342D002007
:103070002410002024130020000C0140141B002009
:10308000281B00200412002060250020BD2B1AD12F
:103090004FF6FE73ADF81C30D8F80030BDF81C10A8
:1030A000B3F860200A44A3F86020BDF81E10B3F8FE
:1030B00062200A44A3F8622009F076FD002384F818
:1030C0000231FFF75EBB792B04D192F80B3123F06C
:1030D000010306E07A2B7FF454AB92F80B3143F0F6
:1030E000010382F80B31FFF74CBB09B0BDE8F08F4C
:1030F0007F4B2DE9F04FB3F906107E4B8FB01E6861
:10310000728991420EDBB1F5FA6FF579BFBF8B1A68
:103110006B43A2F5FA6593FBF5F5ACBFC5F1640509
:10312000643500E06425B08981421ADBB1F5FA6F9D
:10313000327A11DA632A88BF643AA1EB000385BFB3
:1031400092B253435343C0F5FA6298BFA0F5FA62B6
:1031500093FBF2F2643205E0632A03D8C2F1640201
:1031600000E06422644BB3F8960193F95E3101905C
:1031700062489BB20068039302908646002040F2AA
:10318000E6345B4B4FEA400833F910C0019BC3EBB8
:103190000C0303F2F317A74203D8002BB8BF5B421E
:1031A00001E04FF4FA73022800934FF06404029B8D
:1031B0002FD093F819712FB1009BBB42CCBFDB1B02
:1031C00000230093009B4E4F93FBF4F96FF0630BC9
:1031D00037F819A00BFB093B09F1010937F9197000
:1031E0000FFA8AF9C9EB070707FB0BF797FBF4F710
:1031F000444B574423F8087037183F79009B7B43B2
:10320000414F93FBF7F364339BB26B4393FBF4F4AE
:103210002DE093F81A712FB1009BBB42CCBFDB1B92
:1032200000230093009BDFF8ECA093FBF4F46FF015
:1032300063093AF9147009FB043B01343AF914406C
:10324000039BE41B04FB0BFB9BFBF9FBC7EB0B0B8A
:103250000BFB03FB2B4BA3F804B0009BB479002BB2
:10326000B8BF5B426343284C93FBF4F464349EF88C
:1032700001704FF06409674397FBF9F7234B02286D
:103280001F549EF80B7003F1030A04FB07F797FB2A
:10329000F9F70AF800709EF8157003F1060304FBB5
:1032A00007F494FBF9F9174F03F80090184B0ED16F
:1032B0009A70019B9C450EDB0F4CB4F8982191420B
:1032C0002ADBB1F5FA6FA8BF4FF4FA6125E01D546F
:1032D000019B9C4504DA37F808305B4227F8083038
:1032E000013003280EF1010E7FF449AFE4E700BF7F
:1032F000D61A002024100020281B0020FC0F0020DC
:10330000AA1A0020201B00200CFEFFFF460F002001
:10331000E8230020380F00201146891A4FF47A73F1
:103320005943C2F5FA62B1FBF2F1642391FBF3F267
:10333000DFF834E36FF063063EF8120006FB02117B
:1033400001323EF9122006B2921B514391FBF3F376
:103350000344FB80B04BB14D1B885A0642D5B04B9D
:103360000A20B3F9043093FBF0F0AE4B1B88C01A6F
:1033700000B20FF09FF8AC490FF0F0F8AB490646E9
:103380000EF0E4FF09F0A9F88046304609F0A5F8F0
:103390000646B5F902000FF08DF88146B5F9000038
:1033A0000FF088F8414682460FF0D8F83146834640
:1033B00048460FF0D3F8014658460EF0C5FF0FF00F
:1033C00093FA4146288048460FF0C8F831468046B7
:1033D00050460FF0C3F8014640460EF0B7FF0FF01D
:1033E00083FA6880924B934D18880FF05FF8924BE8
:1033F00005F11C0101222E8B08F000FE0FF09AFA55
:1034000080B2B6FBF0F095F82630461CB6B2AE841A
:10341000A8460BB3B5F928A00023864D37F813C092
:1034200005F1320E3EF8132005F12A09C2EB0C0B10
:1034300039F913202EF813C00AFB02F132B291FBC6
:10344000F2F25A4429F813200133042BE5D100236A
:1034500085F82630288502E02B8D013B2B85754DA4
:103460000023B5F92800002812DDB5F9246073495E
:10347000A1F1080232F9132031F81310424392FBF4
:10348000F6F28A1A27F813200133042BEFD100E05B
:103490002B856B4E33689B0776D545F20721694B28
:1034A000DFF890B11A68EB6BD31A8B426CDDCBF866
:1034B0003C2003F0C1FD644BDFF8B0A11A789946B7
:1034C000032ABAF8003022D10A2B2CD90023282055
:1034D00089F800300DF0E1FB03F0AEFD5B4B18887E
:1034E00003F094FD5A4B1A68D37890FBF3F0013047
:1034F0000828584BA8BF08201870537980B243435E
:10350000A5F8403013795843A5F842000BE00A2B88
:1035100009D803234F4A89F8003000231370ABF811
:103520004030ABF8423099F80030474A012B0DD0BB
:1035300002D3022B1ED027E0B5F84020BAF80030A5
:103540009A4221DD012389F8003011E0BAF8001019
:10355000B5F842308B4202DD0223137011E0354B87
:10356000B3F840300133994202DD002313700BE0C1
:10357000082007E0B5F84230BAF8002001339A423B
:10358000E0DC07200DF0C4FB3368334E13F4006F0A
:1035900000F0A9802B4A696C12682648C1EB020929
:1035A00045F20721894540F39E804264B7F9062021
:1035B000274FB4F84E11D7F800A0A2F57A729AF806
:1035C0000AE0264FBEF1010F04D073D3BEF1020F03
:1035D0004ED071E0224B816C5A7B224B4FF0080E8B
:1035E00033F8122091FBFEF392B2C91A8B18836450
:1035F00093FBFEF3A0F84C2040F6E4429BB2534309
:10360000BAF80820C2EB13334FF47A725343BAF975
:10361000062093FBF2F34EE0AE230020201B002097
:10362000141B0020360F002035FA8E3CDB0FC93FFB
:10363000B80F0020380F00206F12833A6A0F002065
:103640000C230020F430002060230020881200208A
:10365000102300204C000020163100201C230020E5
:103660007012002080120020921A002014230020E3
:103670003078BAF808B04007C7F800B01CD5A448A5
:103680000192009306F07FFD009B019A18B913F098
:10369000100F18BF002202FB02F1322391FBF3F35B
:1036A0001344BAF906205A434FF47A7392FBF3F3AA
:1036B0005B4400E000233B603B68D8E9140103FB56
:1036C00009F94FF47A7399FBF3F910EB090241EB16
:1036D000E973C8E91423104619468E4A00230FF0F7
:1036E00049F98D4B18608D4B1A68984612F4805F2B
:1036F00002D00A200DF00CFB894F3B68002B59D0FB
:10370000DFF874E2874ADEF800001168F246814271
:1037100091464FD8844ADFF81CB21078596808BB2C
:1037200001201070BBF800208A5C52B31B78013B6B
:1037300000FA03F2D4F8DC371A4201D10DF0CEFAC8
:103740007A4B01221A7003F0E7FCBBF80030C3B9D2
:103750003B681B78053B012B13D80DF077FA744BAF
:1037600018600EE000231370BBF800208A5C42B1A1
:10377000184600930DF0B2FA6C4A009B137003F0E8
:10378000CBFC3B68BBF800205B686A499B5CFE2B66
:1037900002D100230B800DE0FF2B02D10DF0A4FA23
:1037A00008E0DAF800000A2707FB03030132C9F832
:1037B00000300A803378590703D55F4B08225A61DD
:1037C00038E0D8F80020D2075EBF5C4A43F001031E
:1037D00013705B4B554A1B781B075EBF337823F091
:1037E00001033370574B1B6813F0040F02D0564986
:1037F000098851B95549098809B19F0705D4544B27
:103800001B88003318BF012333B1022313703378B0
:1038100023F00103337004E03178C80758BF022356
:1038200013700DF013FA4B4B1B68C01A002801DB14
:1038300003F072FC0BF088FD474B1F780093002FBC
:1038400000F0E780454E3368002B00F03A8730687F
:103850000DF017FB002800F03487404B404C1868EF
:103860000DF00CFB092802D03F2840F087804FF074
:1038700000094F46D4F800803A4DB8F1000F05D04A
:1038800039482968424611F00BFE10B9A94607B91C
:103890002F46364B10359D42EFD3C7B1D7F800E025
:1038A000D9F800C023681EF803501CF80300A84292
:1038B0000DD15A1C2C4938B92D2B05D8284D2A601A
:1038C0002025CD54885402E0CD542260EAE72368D5
:1038D0000BB14F4511D026480CF07CFF4F4507D85F
:1038E00057F8100B0CF076FF09200CF06BFFF5E792
:1038F00020480CF06FFF4FF0000823689845A6D2CF
:10390000194B13F808000CF05DFF08F10108F4E70B
:10391000B01C0020407E050020230020BC0F0020AA
:103920007C2D0020742D0020702D002048130020D5
:10393000AC300020782D0020000C01401631002012
:1039400060250020A82300200C310020FC2400204A
:103950000E3100204C13002014310020502D002087
:10396000FC140020C47F0108CC14002094810108BD
:10397000FE9D0108039E0108FC1A00202368002B0D
:1039800040F08486042840F0A786CF4804F0B2FABD
:1039900000F097BEDFF840B3DBF800000DF071FADD
:1039A00028B3DBF800000DF069FAC84B82461B68AB
:1039B00093F8481000293DD1242877D1012283F8BB
:1039C0004820DFF808B3DBF8003093F84820062AD7
:1039D000E0D193F8490001F05DFE002800F08D80F1
:1039E0000CF050FED8F80030002283F8482095F8FB
:1039F0005D3053B159F8070006F0C6F90DF022FC0E
:103A000008F00CFEB24AB34BDA604C37982F00F046
:103A10005886DFF8E89207EB090393F84A20012A59
:103A2000F3D1DFF8A882AC4AC8F8003057F8093063
:103A30001360AFE7012904D14D2814BF00220222F0
:103A4000BDE7022904D13C2814BF00220322B6E7B7
:103A500003290CD140284FF0000102D983F8481007
:103A6000AFE758711971D97198710422A7E7042939
:103A700007D1997983F8490080EA01029A710522F9
:103A80009DE705299DD1587919798842987908D9F7
:103A90008AEA00009871481C18710B4483F808A04A
:103AA0008FE750450CBF0622002288E733788B4908
:103AB0005B0786D42328DBF8003011D1009A01205F
:103AC00010708748019103608648AB650CF082FE58
:103AD00085480CF07FFE01990B7843F002030B70D0
:103AE000824B1B681B78534501BF814A814B1A608A
:103AF000774A04BF774BDA6063E7DBF8002092F87F
:103B000049A0BAF14A0F00F0BC8561D8BAF1330F71
:103B100000F0B88429D8BAF1290F00F03C840CD801
:103B2000BAF1250F00F01384BAF1270F00F01584C5
:103B3000BAF1230F40F0CC85AAE2BAF12D0F00F0C4
:103B40003B8408D8BAF12B0F40F0C2850CF06CFD15
:103B5000607100F096BDBAF12F0F00F0FF84BAF14A
:103B6000310F00F0108500F0B3BDBAF13E0F00F048
:103B70003E8114D8BAF1370F00F0B88405D8BAF1F5
:103B8000350F00F0C18200F0A3BDBAF1390F00F08B
:103B9000F183BAF13C0F00F0348100F099BDBAF125
:103BA000430F00F0808407D8BAF1410F40F09085B0
:103BB0004FF0000A00F06BBCBAF1440F00F018851A
:103BC000BAF1480F40F084850BF0FEF900F059BDC2
:103BD000BAF1D00F00F0998367D8BAF1CA0F00F09C
:103BE0002A8119D8BAF14E0F00F01E84BAF1C80F1D
:103BF00000F0CD80BAF14C0F40F06A850CF014FD56
:103C000084F8D6010CF010FD84F8D7010CF016FDF5
:103C1000A4F8D80100F035BDBAF1CD0F00F08083D3
:103C200005D8BAF1CC0F00F0978200F051BDBAF17F
:103C3000CE0F00F07E83BAF1CF0F40F049850CF033
:103C4000FDFC6FF4AF6E00EB0E039BB2C62B98BF6A
:103C5000A4F896010CF0F2FCA4F840010CF0EEFC84
:103C6000A4F842010CF0EAFCA4F844010CF0E6FCD4
:103C7000A4F8D8010CF0D8FC0CF0D6FC0CF0D4FC65
:103C80000CF0D2FC84F885010CF0CEFC84F8920193
:103C90000CF0CAFC184BD3F800A00CF0CFFC00EBE2
:103CA00080004000AAF85E0064E3BAF1D80F00F08B
:103CB0005F8130D8BAF1D30F63D021D8BAF1D20FD7
:103CC0004CD000F005BD00BFCC140020882300209C
:103CD0000400FA0500ED00E08C23002016310020DE
:103CE000502D0020339E0108039E01080012002081
:103CF000EFBEADDEF04F0020FC0F0020501300207F
:103D0000BAF1D40F00F08382BAF1D60F40F0E0840C
:103D10004FF0000A70E2BAF1F20F00F0CE8213D831
:103D2000BAF1EF0F40F0D484DFF854A3DAF800B012
:103D30000CF084FCABF86200DAF800A00CF07EFC1A
:103D4000AAF8600000F09DBCBAF1F30F00F05484B3
:103D5000BAF1FA0F00F0F78200F0BABC337803F042
:103D6000040303F0FF0A002B40F08B840CF05CFC92
:103D7000022884F8AC0740F2CE82BB4B83F8ACA794
:103D8000C9E20CF05BFCB94B188000F07ABC92F8E9
:103D900005A04FEA5A0ABAF1120F03D902F058FDF2
:103DA00000F06FBC4FF0000BD34507D20CF046FC7F
:103DB00005AB23F81B000BF1010BF5E7524600237E
:103DC000534507DA05A931F81300A94921F8130072
:103DD0000133F5E7122A05D0A54B002123F8121074
:103DE0000132F7E7012385F85C3000F04ABC0CF0A3
:103DF0001BFC84F8E0010CF017FC84F8DF0100F0F4
:103E000040BCDFF87CA2DAF800B00CF00DFC18B171
:103E10000228A8BF022000E001208BF80000DAF899
:103E200000301B78022B18BF924A934B08BF934A6D
:103E30001A6000F026BC924B82461A689B461278A4
:103E4000022A77D1DBF8003002930CF0EDFB0AF187
:103E5000080201920EF02AFB8A490EF033FC019A07
:103E6000029B43F82200DBF8003001930CF0DCFBEE
:103E7000019B0AF10A0203EB820301930EF016FB89
:103E800081490EF01FFC019B5860DBF80030029363
:103E90000CF0CAFB0AF10E0201920EF007FB7B49FF
:103EA0000EF010FC0AF1010A019A029BBAF1030F0D
:103EB00043F82200C6D1DBF80030BAF1070F0193B6
:103EC0001DD10CF0B1FB0EF0F1FA6E490EF0FAFBC9
:103ED000019B5864DBF8003001930CF0A5FB0EF059
:103EE000E5FA68490EF0EEFB019B9864DBF80030C0
:103EF00001930CF099FB019B83F84C0014E00CF04B
:103F000093FB019B53445870DBF8003001930CF095
:103F10008BFB019B5344D872DBF8003001930CF00B
:103F200083FB019B534458750AF1010ABAF10A0F49
:103F3000C1D1A6E3DBF8003001930CF075FB019BC7
:103F400053445870DBF8003001930CF06DFB019B7B
:103F50005344D872DBF8003001930CF065FB019BF1
:103F600053440AF1010ABAF10A0F5875E2D188E305
:103F70008246DFF80CB1DBF8003002930CF05EFBF8
:103F80000AF1080201920EF091FA40490EF09AFBF4
:103F9000019A029B43F82200DBF8003001930CF0F9
:103FA0004DFB019B0AF10A0203EB820301930EF021
:103FB0007DFA36490EF086FB019B5860DBF8003035
:103FC00002930CF03BFB0AF10E0201920EF06EFA26
:103FD0002E490EF077FB0AF1010A019A029BBAF111
:103FE000030F43F82200C4D1DBF80030BAF1070F09
:103FF00001931DD10CF022FB0EF058FA23490EF06C
:1040000061FB019B5864DBF8003001930CF016FB58
:104010000EF04CFA1D490EF055FB019B9864DBF83D
:10402000003001930CF00AFB019B83F84C0014E074
:104030000CF004FB019B53445870DBF800300193F3
:104040000CF0FCFA019B5344D872DBF8003001936A
:104050000CF0F4FA019B534458750AF1010ABAF1C5
:104060000A0FC1D10DE300BF281B0020340F002030
:104070002C11002051D1000844000020F516010841
:10408000FC0F0020000020410000C84200007A44DC
:104090000CF0CAFA132882463FF680AEDFF874B3FC
:1040A000DBF8003001930CF0BFFA0023D4490C2256
:1040B00002FB031292F808E0864521D1019B03EB35
:1040C0008A0A13788AF881300CF0AEFA8AF88200F6
:1040D0000CF0AAFA8AF883000CF0A6FAC94ACA4B77
:1040E0008AF884001A60DBF80000C84B00211860D1
:1040F000813006F037F8C64B80F001001870C0E23E
:1041000001331D2BD2D149E60CF08EFA0B288346E1
:104110003FF644AEBF4BD3F800A00CF085FA03285D
:104120003FF63CAE062303FB0BAA8AF8D6000CF040
:104130007BFA8AF8D1000CF077FA8AF8D2000CF0FA
:1041400073FA8AF8D3000CF06FFA8AF8D4000CF0F6
:104150006BFA8AF8D50094E25379092B7FF61EAEEC
:10416000DFF8C0A2DAF800B00CF05EFA8BF80000BD
:10417000DAF800B00CF058FA8BF801000CF054FAA1
:10418000DAF800306428A8BF642018710CF04CFAEB
:10419000DAF800306428A8BF642058710CF044FAA3
:1041A000DAF80030FF28A8BFFF2098710CF03CFA25
:1041B000DAF800B0642828BF64208BF807000CF000
:1041C00033FA8BF80200DAF800B00CF02DFA8BF815
:1041D0000300DAF800B00CF031FAD8F80030ABF890
:1041E0000A005B790A2B40F24C82DAF800A00CF04E
:1041F0001BFA8AF8090044E20CF020FA864B23F8F7
:104200001A000AF1010ABAF1080FF5D139E253791F
:104210000F2B7FF4C3AD0CF007FA072882463FF658
:10422000BDADDFF8F0B1DBF8003001930CF006FA19
:104230000E2202FB0AFA019B5344A3F82101DBF88A
:10424000003001930CF0FAF9019B5344A3F82301C9
:10425000DBF8003001930CF0F1F9019B5344A3F813
:104260002501DBF8003001930CF0DEF9019B53448B
:1042700083F82701DBF8003001930CF0D5F9019B9E
:10428000534483F82801DBF8003001930CF0CCF99B
:10429000019B534483F82901DBF8003001930CF0B3
:1042A000C3F9019BDBF800B0534483F82A010CF0FA
:1042B000CFF9DA44CAF82B01E3E10CF0B5F90F2885
:1042C00082463FF66BAD0CF0AFF9CAEBCA0AA244C6
:1042D0008AF8D0000CF0A8F98AF8D1000CF0A4F903
:1042E0008AF8D2000CF0A0F98AF8D3000CF09CF9FF
:1042F0008AF8D4000CF098F98AF8D5000CF094F9FB
:104300008AF8D6000CF0DEFFBBE13378580700F1E5
:10431000B8810BF0D1FB08F0ABF908F073FAB0E10B
:104320003378590700F1AD813C4B4FF4C8721A80C5
:10433000A7E133785A0700F1A481394A137843F092
:10434000040313709DE133785B07E4D5C0E1A060FE
:104350000CF07EF908F05AF993E10CF06FF9A4F82B
:1043600058010CF06BF9A4F85A010CF067F9A4F8A5
:104370005C0186E10CF058F984F87A010CF054F9EC
:1043800084F87E010CF050F984F87D010CF04CF9B2
:1043900084F87F0175E10CF051F9A4F880010CF06C
:1043A0004DF9A4F882010CF03FF984F884010CF077
:1043B00045F9A4F8860164E10CF036F984F890011F
:1043C0000CF03CF9A4F89A010CF038F9A4F8960125
:1043D0000CF034F9A4F898010CF026F9DBF8003061
:1043E00084F891015B79082B40F24B810CF026F99F
:1043F000A4F89C010CF022F9A4F89E0141E100BF51
:10440000C87D0108681C00202C0F0020300F002000
:104410000B000020FC0F0020362D0020FC24002083
:10442000602500202410002092F805A00323BAFB89
:10443000F3FABAF1120F3FF6B1ACDFF89CB30023E8
:10444000534580F01E8101930CF0EEF88BF8A0012B
:104450000CF0F4F840F2ED229042019B05DD40F6AD
:10446000CA029042A8BF104601E040F2EE20A0F23E
:10447000EE20192290FBF2F001338BF8A1010BF131
:10448000020BDDE70CF0D0F884F89201F9E00CF0B3
:10449000CBF804EB0A030AF1010ABAF1080F83F81A
:1044A0008801F4D1EDE001900CF0BEF80199607143
:1044B000A1600CF0CDF808F0A9F80CF0B5F884F87C
:1044C00090010CF0BBF8A4F858010CF0B7F8A4F870
:1044D0005A010CF0B3F8A4F85C010CF0AFF8A4F8A2
:1044E00080010CF0ABF8A4F88201CAE053794FF0D8
:1044F000070BB3FBFBF2C2EBC2029A1A12F0FF0FDA
:104500007FF44CACB3FBFBFB0BF1FF3B5FFA8BFB87
:10451000BBF1FF0F00F0B5800CF086F8C3B258B2C3
:10452000019305F0B9FC824600283FF437AC019BAB
:1045300003700CF083F8AAF802000CF075F88AF802
:1045400004000CF071F88AF805000CF06DF88AF898
:1045500007000CF069F88AF80600D5E7DFF878A2C2
:104560000AF1400B0CF06AF8AAF8B0020CF05CF803
:104570008AF8B2020CF058F80AF1040A8AF8AF027D
:10458000DA45EFD17DE00CF04FF81F2882463FF668
:1045900005ACD8F800305B79082B7FF4FFAB0CF04A
:1045A0004DF80AF18C0A04EB8A0B00F03F00ABF8DF
:1045B00002000CF043F8BBF80230800100F4FE501A
:1045C0001843ABF802000CF02FF8000104F82A00A1
:1045D0000CF02AF814F82A3000F00F00184304F801
:1045E0002A000CF021F88BF801000AF05DFA48E08F
:1045F000012385F85D3044E00CF016F8FF2883466F
:1046000022D100238DF813309DF81330052B14D8D8
:104610009DF81300624A9DF81330012102EBC30399
:104620005B6852F83000994089B2482205F016FBC9
:104630009DF813300133DBB2E4E75A484FF4805160
:10464000042205F00BFB1CE005283FF6A7AB002079
:104650000CF03CF80CF016F8D8F80020106805F0C3
:1046600093FB514B18680BF0BFFF584605F004FB55
:104670000A200CF012FB02F073FDD8F8002082F83B
:1046800049A000200CF022F8FFF7AAB90C2825D089
:104690000A282CD1454D46480CF09CF82846232189
:1046A00010F0E7FE08B1401B20602368002B41D1C9
:1046B0003E4800213022236010F0A5FE009B1B78AD
:1046C0007BB93C4B9B68002B67D03B48984764E024
:1046D00002F0BEF8FFF784B90C2804D137480CF07B
:1046E00079F837480DE07F2812D1FFF7B0B80D28D0
:1046F000D0D07F2809D12D4A013B002131482360C9
:10470000D1540CF067F8FFF7A2B82F2B3FF69FA803
:10471000A0F12002D2B25E2A3FF699A813B9202850
:104720003FF495A85A1C2260204AD0540CF04AF855
:10473000FFF78DB85A1EA95C202901D11346B5E7B1
:104740001A4A00212360D1541F4B204DD3F800900A
:10475000D5F800A0DFF85480504610F098FE0746C8
:1047600051463A46404610F09BFE194A28B918F8BF
:1047700007304B445B78590703D010359542E7D397
:1047800006E0954204D2781CEB684044984702E06A
:1047900010480CF01FF800238AE70FB0BDE8F08F37
:1047A0008CA90108000801408C230020CC140020B3
:1047B00017AD010800140020960F0020089E010884
:1047C000039E01082F9E010854000020C47F0108A9
:1047D00094810108139E0108281B00206B4B6C4A32
:1047E0002DE9F04F5E8914684FEA062AB4EB0A0AF5
:1047F0009C884FF000054FEA04481C894FF0000BDD
:10480000A4FB0A6765EB0B0B04FB0B77F40944EA86
:10481000476418EB04065C884FF000094FEAE7157F
:104820004FEAC438DC8849EB050787B0CDE9046757
:10483000A4FB0A6704FB0B77340A44EA076418EB0D
:1048400004064FEA27259C894FF0000949EB05072C
:10485000CDE90067AAFB046704FB0B77F40D44EA7B
:10486000472414F5FA664FEAE75545F10007B6F517
:10487000FA6F77F10003CDE90267964666DADDE963
:104880000489A4FB046704FB05F34FF0050C07EB58
:104890004307A6FB0C230CFB07335F104FEA3206DD
:1048A000B8EB06084FEA920646EA837669EB0709F9
:1048B0009F10DDE90023921B63EB0703CDE9002382
:1048C000DDE90267334A4FF0FF33964277EB03038B
:1048D000CDE9048927DA40F6AC520023A4185D41E3
:1048E00004FB05F3A4FB04456FF0060205EB43054A
:1048F000664202FB0566A4FB0223334418EB020662
:1049000049EB0307CDE904670B26A4FB062306FB4E
:104910000533DDE900455B104FEA3202A41A65EB6E
:104920000305CDE90045DDE902450AFB0BF3AAFBCF
:104930000AAB0BEB430B4FEADA7242EA4B02A41AC2
:104940004FEAEB7365EB0305CDE90245DEF8044061
:10495000009B019DA4FB032304FB05334FEA52583F
:1049600048EAC3284FEA6359DDE90423B8EB0202A1
:1049700069EB03039946D30B43EA494300B1036053
:1049800009B1029B0B6007B0BDE8F08F2C1400202A
:10499000980F002024FAFFFF2DE9F04F87B06C4CF0
:1049A00002916C4922888E680546C2EB26135B4350
:1049B0005200C2EBE602B4F902601B135643B4F98D
:1049C0000420B4F90A0053439B1303EBE62606EBDD
:1049D000860380331B12B6F5FA384FEAE677049364
:1049E000CB6847F1FF39A8FB08AB039308FB09F339
:1049F000B4F908200BEB430BE389A6610593D317A9
:104A000008FB03F102FB0911A8FB02230B44C117A9
:104A10001F030AFB01F300FB0B33AAFB0001160383
:104A2000194447EA1257020A42EA016292194FEA10
:104A30002123E6887B410032A2FB060143F50043B7
:104A400006FB03114B100093CB170193DDE9002304
:104A50001343B4F810E0B4F80CC06DD00FFA8EF028
:104A6000C1170AFB01F1AAFB002300FB0B11BDF9E2
:104A700014600B44F71708FB07F106FB0911A8FBAC
:104A800006670F4479047004801841EAD631594111
:104A9000039B0FFA8CF8C3F5801E7246D3170022D1
:104AA00012184FEACE764FEAC3774FEAC8034B415C
:104AB00047EA5E07B61A67EB030740F63543A6FBE5
:104AC000030103FB0711DDE900230DF053FFB4F9E7
:104AD00016204E1302FB06FE470B47EAC147D317C9
:104AE00007FB03EEA2FB07235643734407FB036651
:104AF000A2FB07233344560E46EAC3168219B4F9C3
:104B000014604FEA636741EB07037143F71700FB3B
:104B10000717A6FB00013944C60C46EA4136921934
:104B20004FEAE1474FEA1221B4F912207B4141EAF2
:104B3000036113010B4400E000230DB11B0A2B603D
:104B4000029B13B11A46049B136007B0BDE8F08FB7
:104B500098140020980F0020704770472DE9F0410D
:104B6000324C334D62892B8AB4F904809A1A238916
:104B7000B4F902E05A43B4F91230D613B4F9142050
:104B8000DB02324493FBF2F232440A26E2615643DE
:104B9000A2F57A6202FB02F3B4F90EC002FB0EFE2C
:104BA00002FB08F2B4F90C801B130CFB03FC03FBA3
:104BB00008F31B1403EB62320232E388921002F511
:104BC000004253434CF25032B4F920704FEAEE2EBB
:104BD000B4F900400EEBEC2C0CEB8404BC406D6986
:104BE0000234A5EBA4043A4162434FEAD3384EBFE6
:104BF000B2FBF8F35400B4FBF8F340F6DE3448BFE0
:104C00005B001A12524362430A4C08365C43241478
:104C100004EB224202F6CF62361103EB221300B1FD
:104C2000036001B10E60BDE8F08100BF40140020B8
:104C3000980F002043E3FFFF13B50C4B04465B685D
:104C40001B20022101AA984770B19DF804209DF80D
:104C5000053043EA022303F54E5310334FF48C72B0
:104C600093FBF2F32333238002B010BD181400200D
:104C7000054B1A7E02F0FF0122B1012202700022D0
:104C80001A76704701707047980F002037B5104BA7
:104C900004465D68187806216A46A847A8B19DF8C1
:104CA00000209DF80130012043EA022323809DF873
:104CB00002209DF8033043EA022363809DF804201C
:104CC0009DF8053043EA0223A38003B030BD00BF46
:104CD0001814002013B5104B04465B683B200621D6
:104CE0006A469847A8B19DF800209DF80130012040
:104CF00043EA022323809DF802209DF8033043EA13
:104D0000022363809DF804209DF8053043EA0223C6
:104D1000A38002B010BD00BF18140020B0F5807F42
:104D20000ED0BB280ED861280ED829280ED81328FB
:104D30000ED809280ED8002814BF0620002070477E
:104D40000020704701207047022070470320704701
:104D5000042070470520704710B5224C2368998ABB
:104D600089B211F4706F1EBF1F4A0120507611F4F2
:104D7000E06F2BD01A8B9A88890522F480624FEA63
:104D800002424FEA12429A8020D41A8892051DD41A
:104D90001A88D0050FD51A88D105FCD41A8892B28A
:104DA00042F400721A801A889205FCD40F4B1878CE
:104DB00005F04FFC0AE01A8892B242F400721A80A1
:104DC0009A8822F440721204120C9A802268938A04
:104DD00023F470631B041B0C9382054B00221A7092
:104DE00010BD00BFB81A0020980F0020BC1A002088
:104DF000D01A0020054A08B5138801339BB21380EE
:104E0000034B187805F025FC002008BDBA0F0020E0
:104E1000BC1A002008B54FF4804001F03BFF012888
:104E200001BF044B4FF480425A61034B08BF987690
:104E300008BD00BF00040140980F002010B5074CCA
:104E40002368186901F026FF30B123681A69044B02
:104E50005A61044B01221A7610BD00BF24140020B1
:104E600000040140980F0020F8B50E461746084C84
:104E70004FF48055656140F0800005F05FFE3846D4
:104E80000021324605F024FE25610120F8BD00BF57
:104E9000000C014070B50E46054C4FF4805565611D
:104EA00005F04CFE304605F049FE2561012070BD3D
:104EB000000C014070B5FFF731FF104C054619207A
:104EC0000BF0EBFEA36815200021984710B90220D3
:104ED0000BF06CFF45F01801A368C9B21620984783
:104EE000A368002117209847A36801213D20984717
:104EF000A3683E200121BDE8704018471814002027
:104F0000F0B5274D85B0EB7E002B46D1254C2368AC
:104F1000002B42D01A68244E12B1B1690A43B26123
:104F20009A889868ADF8002002228DF8032069461F
:104F300004228DF8022004F0ACF8B369002743F096
:104F40000103B36123680126187B197D04F08CF8F6
:104F50002368164993F915000BF072FF2368144A71
:104F60001B695361029308230DEB03008DF80D308C
:104F70008DF80C708DF80E6001F05DFE236801A8BD
:104F80005B7D8DF806708DF8043003238DF80530B5
:104F90008DF8076005F07EFDEE7605B0F0BD00BF30
:104FA000980F002024140020001002403D4E0008FD
:104FB0000004014037B50446FFF7A2FF274B1A68EB
:104FC000274B9A420ED14FF40053ADF80430022320
:104FD0008DF80730042323480DEB03018DF80630CC
:104FE00004F057F8FFF78CFF2046FFF797FE0546C1
:104FF0001D4C8021A3686B20984764200BF04DFE68
:10500000A36807216820984764200BF046FEA36838
:1050100000216B20984764200BF03FFEA36801211C
:105020006B209847A36818211B209847A36810217C
:105030001C209847A36829461A2098470B4AA36862
:10504000117819209847A368122137209847A36840
:1050500001213820984703B030BD00BF1C0000205C
:10506000001BB7000010014018140020B4140020E9
:1050700008B5FFF745FF024B4FF480521A8008BD78
:105080003800002070B50446FFF73AFF2046FFF7CE
:1050900045FE0546144C8021A3686B209847642088
:1050A0000BF0FBFDA36803216B2098470F4AA36810
:1050B0001178192098470F200BF0EFFDA3682946BF
:1050C0001A209847A36818211B209847A36810212D
:1050D0001C209847A368022137209847A3683820EE
:1050E0000121BDE87040184718140020B4140020B6
:1050F00008B5FFF705FF074B5B7813B1012B03D011
:1051000008BD4FF4006201E04FF48052024B1A8058
:1051100008BD00BF141400203800002010B5400066
:10512000204CC0B220702048204C01702048002143
:105130000170012020701F4C23601F4C23601F4B07
:105140001A701F4A1F4B107059761F490868114684
:105150001A4630B383889C0515D40388DB050DD42B
:1051600047F230530488A40502D5013BFAD112E07E
:105170008BB103889BB243F48073038083889BB216
:1051800043F44073838047F23053087810B1013BF9
:10519000FBD100E013B9BDE810402BE6507E80F053
:1051A000010010BDC21A0020C01A0020BE1A002043
:1051B000C81A0020C41A0020CC1A0020C11A0020EE
:1051C000D01A0020980F0020B81A002007B500213F
:1051D00001AB03227720FFF7A1FF9DF805309DF872
:1051E00004001B0243EA00439DF80600184303B085
:1051F0005DF804FB08B5FFF7E9FF014B586008BDF7
:10520000980F002008B5FFF7E1FF014B186008BDBB
:10521000980F002007B5F7216B4606227620FFF78E
:105220007DFF9DF800309DF801101B0343EA011338
:105230009DF80210094A43EA1113D3609DF8033028
:105240009DF804101B0343EA01139DF8051043EA7F
:105250001113936003B05DF804FB00BF980F0020AA
:105260000F4B13B51B780F4C0BB1A37EB3B10322C8
:1052700001AB7720F621FFF751FF9DF805309DF82F
:1052800004201B0243EA02439DF806201343064A0A
:10529000B2F92020C2F10802D340636102B010BD10
:1052A00028000020980F0020401400200A4B13B55E
:1052B0001B780A4C0BB1A37E63B1022201AB7720AD
:1052C000F621FFF72BFF9DF804209DF8053043EAF7
:1052D0000223238202B010BD28000020980F002076
:1052E00030B505460C46134629462246BDE83040F7
:1052F000682013E713B50622044601211C206B46E3
:10530000FFF70CFF08B39DF801309DF80020042141
:1053100043EA022242F38D0292FBF1F29DF8023041
:1053200022809DF8032042EA032242F38D0292FB81
:10533000F1F29DF8043062809DF8052042EA0323D3
:1053400043F38D0393FBF1F3A38002B010BD13B5BB
:1053500006220446022118206B46FFF7DFFEB8B193
:105360009DF800309DF801209B0803EB0223238069
:105370009DF802309DF803209B0803EB0223638015
:105380009DF804309DF805209B0803EB0223A380C1
:1053900002B010BD314B2DE9F3411B780546002BBF
:1053A0003BD0002426462746A04601345320322114
:1053B00008226B46E4B2FFF7B1FE08B9002049E0CD
:1053C0009DF801209DF80030202C03EB02231BB236
:1053D0009DF8032098449DF8023003EB02231BB292
:1053E0001F449DF805209DF8043003EB02231BB2F7
:1053F0001E449DF8073003F07F0301D0002BD4D169
:1054000098FBF4F897FBF4F796FBF4F6144BA5F829
:1054100000806F80AE801C771CE053203221062272
:105420006B46FFF77BFE0028C8D09DF801209DF851
:10543000003003EB02232B809DF803209DF80230FF
:1054400003EB02236B809DF805209DF8043003EBED
:105450000223AB8002B0BDE8F08100BF2A14002017
:10546000980F002013B502AB03F8012D4000214A2C
:10547000C0B21070204A00201170204901220A7029
:105480001F4908701F490B601F490B601F4B2049C3
:105490001A700A701F4B204A587610681A4630B3AB
:1054A00083889C0515D40388DB050DD447F230535F
:1054B0000488A40502D5013BFAD112E08BB1038820
:1054C0009BB243F48073038083889BB243F44073A0
:1054D000838047F23053087810B1013BFBD100E0E4
:1054E00013B9FFF787FC02E0507E80F0010002B0A4
:1054F00010BD00BFC21A0020C01A0020C81A002028
:10550000BE1A0020CC1A0020C41A0020C11A0020A4
:10551000D01A0020980F0020B81A002077204821C8
:1055200001229FE77720582101229BE77620F42172
:10553000312297E7064B002193F82020054B92017A
:10554000343299767720F42102F0FC028AE700BF1A
:1055500040140020980F0020034B00229A767720F9
:10556000F4212E227EE700BF980F002003460A4652
:105570006820194676E713B500222A211C20FFF780
:1055800071FF0E2102221C20FFF76CFF0F21032266
:105590001C20FFF767FF2B2112221C20FFF762FF60
:1055A000164A02249369164843F0040393612023AA
:1055B000ADF8043004230DEB03018DF806308DF8AF
:1055C000074003F066FD22462C211C20FFF74AFF0E
:1055D0002D2101221C20FFF745FF2E2100221C2037
:1055E000FFF740FF2A2105221C20FFF73BFF054B58
:1055F0004FF480721A8002B010BD00BF001002404C
:10560000000801403800002008B50F2108221820AA
:10561000FFF728FF0E2218201021FFF723FF024B6F
:105620004FF480521A8008BD3800002008B5134B93
:1056300053201B782D2108227BB1FFF713FF312166
:105640000A225320FFF70EFF2C210C225320FFF7D4
:1056500009FF53203821902209E0FFF703FF312191
:105660000A225320FFF7FEFE53202C210A22FFF7C7
:10567000F9FE40F20912024B1A8008BD2A140020DC
:105680003800002005F0E0B8FFF766BB05F0DCB895
:10569000FFF762BB2DE9F0474728A0B0044600F0B1
:1056A0006E8600F2CE802E2800F01D8667D8222854
:1056B00000F0C38423D8032800F0448214D80128C2
:1056C00000F03582022840F0A88604200AF0FEFF90
:1056D00042200AF0C6FF54200AF0C3FF46200AF019
:1056E000C0FF4C2000F0D1BD042800F03582052811
:1056F00040F093861A200AF0E9FF00243EE22828B1
:1057000000F08B8515D8242800F07285262840F0FB
:105710008486C64C06200AF0D9FFB4F858010AF076
:10572000D8FFB4F85A010AF0D4FFB4F85C0100F0D5
:10573000BDBD2A2800F084852C2840F06E86BB4C25
:105740000C200AF0C3FF94F890010AF08AFFB4F825
:105750009A010AF0BEFFB4F896010AF0BAFFB4F855
:1057600098010AF0B6FF94F891010AF07AFFB4F8B4
:105770009C010AF0AEFFB4F89E0100F097BD3A28F4
:1057800000F0F1821DD8342800F08E840DD8302826
:1057900000F0BF85322840F0408601200AF096FFD5
:1057A000A24B93F8920100F070BD362800F081857D
:1057B000382840F0328604200AF088FF9B4C00F025
:1057C0001DBD402800F0648511D83B2800F02E84D0
:1057D0003D2840F02286954C02200AF077FF94F88D
:1057E000E0010AF03EFF94F8DF0100F04EBD4528CD
:1057F00000F0008600F2B285422840F00E868B4C05
:1058000010200AF063FF60790AF02BFFA0680AF00D
:1058100069FF94F890010AF024FFB4F858010AF0E7
:1058200058FFB4F85A010AF054FFB4F85C010AF0CA
:1058300050FFB4F880010AF04CFFB4F8820100F088
:1058400035BD6F2800F0E88200F2FC80662800F089
:10585000D18100F2C4804D2800F0F88415D8492881
:1058600000F0D4824B2840F0D885704C04200AF018
:105870002DFF94F8D6010AF0F4FE94F8D7010AF04F
:10588000F0FEB4F8D80100F011BD642800F08F815B
:10589000652840F0C285664C0B200AF017FF20886F
:1058A0000AF017FF608880B20AF013FF614B1B6893
:1058B000C3F3C000C3F38002800040EA4200C3F398
:1058C00040021043C3F3401240EAC20003F0100349
:1058D00018430AF0FEFE584B1A88636802F008016C
:1058E00003F4475949EA010903F4804149EA0109EF
:1058F00003F4004149EA010903F4803149EA01094E
:1059000003F4003149EA010903F4802149EA01095D
:1059100003F4002149EA010903F4801149EA01096D
:1059200003F0007349EA0303DFF8149112F0010F4A
:1059300099F8009018BF4FF00208C9F3800908BF1A
:105940004FF0000843EA090312F0020F43EA08038C
:1059500014BF4FF0040C4FF0000C12F0040F43EA98
:105960000C0C14BF4FF0100E4FF0000E12F0400F51
:1059700014BF202700274CEA0E0E12F0100F14BFA0
:105980004FF4007600264EEA070712F0200F14BFEE
:105990004FF4806500253E4312F4807F14BF4FF41E
:1059A00000600020354312F4007F14BF4FF4001153
:1059B0000021284312F4806F14BF4FF0806300234E
:1059C000014312F01B0F41EA03014FF0000014BF26
:1059D0004FF0006300231943247A0346F7E0692857
:1059E00000F0A5810AD8672800F02C81682840F0D3
:1059F000148510200AF06AFE002490E16D2800F062
:105A0000A98100F2D5816C2840F007850B4C062057
:105A10000AF05CFE20880AF05CFE60880AF059FEFD
:105A2000B4F904300A2093FBF0F0EDE1281B0020CC
:105A3000B80F0020A8230020AE230020141B002054
:105A400016310020772800F08D834BD8732800F0A2
:105A5000A9833CD8702800F00982722840F0DD84C8
:105A6000C44C16200AF032FEB4F896010AF031FE5A
:105A7000B4F840010AF02DFEB4F842010AF029FE04
:105A8000B4F844010AF025FEB4F8D8010AF021FE6A
:105A900000200AF0E6FD00200AF0E3FD00200AF0F5
:105AA000E0FD94F885010AF0DCFD94F892010AF01B
:105AB000D8FD00200AF0D5FDAF4B0A205B6CB3F98E
:105AC0005E3093FBF0F080B20AF003FE96E3742898
:105AD00000F00F83752840F0A0842F200AF0F6FD17
